{
  "contractName": "AIModelMarketplace",
  "abi": [
    {
      "anonymous": false,
      "inputs": [
        {
          "indexed": false,
          "internalType": "uint256",
          "name": "id",
          "type": "uint256"
        },
        {
          "indexed": false,
          "internalType": "string",
          "name": "name",
          "type": "string"
        },
        {
          "indexed": false,
          "internalType": "uint256",
          "name": "price",
          "type": "uint256"
        },
        {
          "indexed": false,
          "internalType": "address",
          "name": "creator",
          "type": "address"
        }
      ],
      "name": "ModelListed",
      "type": "event"
    },
    {
      "anonymous": false,
      "inputs": [
        {
          "indexed": false,
          "internalType": "uint256",
          "name": "id",
          "type": "uint256"
        },
        {
          "indexed": false,
          "internalType": "address",
          "name": "buyer",
          "type": "address"
        }
      ],
      "name": "ModelPurchased",
      "type": "event"
    },
    {
      "anonymous": false,
      "inputs": [
        {
          "indexed": false,
          "internalType": "uint256",
          "name": "id",
          "type": "uint256"
        },
        {
          "indexed": false,
          "internalType": "uint8",
          "name": "rating",
          "type": "uint8"
        },
        {
          "indexed": false,
          "internalType": "address",
          "name": "rater",
          "type": "address"
        }
      ],
      "name": "ModelRated",
      "type": "event"
    },
    {
      "inputs": [],
      "name": "modelCount",
      "outputs": [
        {
          "internalType": "uint256",
          "name": "",
          "type": "uint256"
        }
      ],
      "stateMutability": "view",
      "type": "function"
    },
    {
      "inputs": [
        {
          "internalType": "uint256",
          "name": "",
          "type": "uint256"
        }
      ],
      "name": "models",
      "outputs": [
        {
          "internalType": "uint256",
          "name": "id",
          "type": "uint256"
        },
        {
          "internalType": "string",
          "name": "name",
          "type": "string"
        },
        {
          "internalType": "string",
          "name": "description",
          "type": "string"
        },
        {
          "internalType": "uint256",
          "name": "price",
          "type": "uint256"
        },
        {
          "internalType": "address payable",
          "name": "creator",
          "type": "address"
        },
        {
          "internalType": "uint8",
          "name": "ratingCount",
          "type": "uint8"
        },
        {
          "internalType": "uint256",
          "name": "totalRating",
          "type": "uint256"
        }
      ],
      "stateMutability": "view",
      "type": "function"
    },
    {
      "inputs": [
        {
          "internalType": "uint256",
          "name": "",
          "type": "uint256"
        },
        {
          "internalType": "address",
          "name": "",
          "type": "address"
        }
      ],
      "name": "purchasedModels",
      "outputs": [
        {
          "internalType": "bool",
          "name": "",
          "type": "bool"
        }
      ],
      "stateMutability": "view",
      "type": "function"
    },
    {
      "inputs": [
        {
          "internalType": "string",
          "name": "name",
          "type": "string"
        },
        {
          "internalType": "string",
          "name": "description",
          "type": "string"
        },
        {
          "internalType": "uint256",
          "name": "price",
          "type": "uint256"
        }
      ],
      "name": "listModel",
      "outputs": [],
      "stateMutability": "nonpayable",
      "type": "function"
    },
    {
      "inputs": [
        {
          "internalType": "uint256",
          "name": "modelId",
          "type": "uint256"
        }
      ],
      "name": "purchaseModel",
      "outputs": [],
      "stateMutability": "payable",
      "type": "function"
    },
    {
      "inputs": [
        {
          "internalType": "uint256",
          "name": "modelId",
          "type": "uint256"
        },
        {
          "internalType": "uint8",
          "name": "rating",
          "type": "uint8"
        }
      ],
      "name": "rateModel",
      "outputs": [],
      "stateMutability": "nonpayable",
      "type": "function"
    },
    {
      "inputs": [],
      "name": "withdrawFunds",
      "outputs": [],
      "stateMutability": "nonpayable",
      "type": "function"
    },
    {
      "inputs": [
        {
          "internalType": "uint256",
          "name": "modelId",
          "type": "uint256"
        }
      ],
      "name": "getModelDetails",
      "outputs": [
        {
          "internalType": "string",
          "name": "name",
          "type": "string"
        },
        {
          "internalType": "string",
          "name": "description",
          "type": "string"
        },
        {
          "internalType": "uint256",
          "name": "price",
          "type": "uint256"
        },
        {
          "internalType": "address",
          "name": "creator",
          "type": "address"
        },
        {
          "internalType": "uint8",
          "name": "averageRating",
          "type": "uint8"
        }
      ],
      "stateMutability": "view",
      "type": "function"
    }
  ],
  "bytecode": "0x608060405234801561000f575f80fd5b506119068061001d5f395ff3fe60806040526004361061007a575f3560e01c80636a030ca91161004d5780636a030ca91461012457806389e3b2a314610166578063c6a645fe146101a2578063dc746862146101cc5761007a565b806312ee1c0e1461007e5780631c788a9a146100a657806324600fc3146100ce57806331fc042f146100e4575b5f80fd5b348015610089575f80fd5b506100a4600480360381019061009f9190610d65565b6101e8565b005b3480156100b1575f80fd5b506100cc60048036038101906100c79190610e23565b610394565b005b3480156100d9575f80fd5b506100e2610573565b005b3480156100ef575f80fd5b5061010a60048036038101906101059190610e61565b610605565b60405161011b959493929190610f63565b60405180910390f35b34801561012f575f80fd5b5061014a60048036038101906101459190610e61565b610808565b60405161015d9796959493929190610fe2565b60405180910390f35b348015610171575f80fd5b5061018c60048036038101906101879190611087565b61097e565b60405161019991906110df565b60405180910390f35b3480156101ad575f80fd5b506101b66109a8565b6040516101c391906110f8565b60405180910390f35b6101e660048036038101906101e19190610e61565b6109ad565b005b5f811161022a576040517f08c379a00000000000000000000000000000000000000000000000000000000081526004016102219061115b565b60405180910390fd5b5f8081548092919061023b906111a6565b91905055506040518060e001604052805f5481526020018481526020018381526020018281526020013373ffffffffffffffffffffffffffffffffffffffff1681526020015f60ff1681526020015f81525060015f805481526020019081526020015f205f820151815f015560208201518160010190816102bc91906113e7565b5060408201518160020190816102d291906113e7565b50606082015181600301556080820151816004015f6101000a81548173ffffffffffffffffffffffffffffffffffffffff021916908373ffffffffffffffffffffffffffffffffffffffff16021790555060a08201518160040160146101000a81548160ff021916908360ff16021790555060c082015181600501559050507f4eed6af0d402cb471979373747ee3f09e77a623bff41d503ce96edacb72d858f5f5484833360405161038794939291906114b6565b60405180910390a1505050565b60018160ff16101580156103ac575060058160ff1611155b6103eb576040517f08c379a00000000000000000000000000000000000000000000000000000000081526004016103e29061154a565b60405180910390fd5b60025f8381526020019081526020015f205f3373ffffffffffffffffffffffffffffffffffffffff1673ffffffffffffffffffffffffffffffffffffffff1681526020019081526020015f205f9054906101000a900460ff16610483576040517f08c379a000000000000000000000000000000000000000000000000000000000815260040161047a906115d8565b60405180910390fd5b5f60015f8481526020019081526020015f2090505f815f0154116104dc576040517f08c379a00000000000000000000000000000000000000000000000000000000081526004016104d390611640565b60405180910390fd5b80600401601481819054906101000a900460ff16809291906104fd9061165e565b91906101000a81548160ff021916908360ff160217905550508160ff16816005015f82825461052c9190611686565b925050819055507f4129c8696bb756892ebbda9c4396a685357b1f8eddd505fee0f194e56f8c9a2b838333604051610566939291906116b9565b60405180910390a1505050565b5f3390505f4790505f81116105bd576040517f08c379a00000000000000000000000000000000000000000000000000000000081526004016105b490611738565b60405180910390fd5b8173ffffffffffffffffffffffffffffffffffffffff166108fc8290811502906040515f60405180830381858888f19350505050158015610600573d5f803e3d5ffd5b505050565b6060805f805f8060015f8881526020019081526020015f2090505f815f015411610664576040517f08c379a000000000000000000000000000000000000000000000000000000000815260040161065b90611640565b60405180910390fd5b5f808260040160149054906101000a900460ff1660ff1611610686575f6106ab565b8160040160149054906101000a900460ff1660ff1682600501546106aa9190611783565b5b905081600101826002018360030154846004015f9054906101000a900473ffffffffffffffffffffffffffffffffffffffff16848480546106eb9061121a565b80601f01602080910402602001604051908101604052809291908181526020018280546107179061121a565b80156107625780601f1061073957610100808354040283529160200191610762565b820191905f5260205f20905b81548152906001019060200180831161074557829003601f168201915b505050505094508380546107759061121a565b80601f01602080910402602001604051908101604052809291908181526020018280546107a19061121a565b80156107ec5780601f106107c3576101008083540402835291602001916107ec565b820191905f5260205f20905b8154815290600101906020018083116107cf57829003601f168201915b5050505050935096509650965096509650505091939590929450565b6001602052805f5260405f205f91509050805f01549080600101805461082d9061121a565b80601f01602080910402602001604051908101604052809291908181526020018280546108599061121a565b80156108a45780601f1061087b576101008083540402835291602001916108a4565b820191905f5260205f20905b81548152906001019060200180831161088757829003601f168201915b5050505050908060020180546108b99061121a565b80601f01602080910402602001604051908101604052809291908181526020018280546108e59061121a565b80156109305780601f1061090757610100808354040283529160200191610930565b820191905f5260205f20905b81548152906001019060200180831161091357829003601f168201915b505050505090806003015490806004015f9054906101000a900473ffffffffffffffffffffffffffffffffffffffff16908060040160149054906101000a900460ff16908060050154905087565b6002602052815f5260405f20602052805f5260405f205f915091509054906101000a900460ff1681565b5f5481565b5f60015f8381526020019081526020015f2090505f815f015411610a06576040517f08c379a00000000000000000000000000000000000000000000000000000000081526004016109fd90611640565b60405180910390fd5b80600301543414610a4c576040517f08c379a0000000000000000000000000000000000000000000000000000000008152600401610a43906117fd565b60405180910390fd5b806004015f9054906101000a900473ffffffffffffffffffffffffffffffffffffffff1673ffffffffffffffffffffffffffffffffffffffff163373ffffffffffffffffffffffffffffffffffffffff1603610add576040517f08c379a0000000000000000000000000000000000000000000000000000000008152600401610ad49061188b565b60405180910390fd5b806004015f9054906101000a900473ffffffffffffffffffffffffffffffffffffffff1673ffffffffffffffffffffffffffffffffffffffff166108fc3490811502906040515f60405180830381858888f19350505050158015610b43573d5f803e3d5ffd5b50600160025f8481526020019081526020015f205f3373ffffffffffffffffffffffffffffffffffffffff1673ffffffffffffffffffffffffffffffffffffffff1681526020019081526020015f205f6101000a81548160ff0219169083151502179055507fc8581808129c51c0416692a5ea1b58e080ae8f21e384eefe2f2dc85d231d12ba8233604051610bd99291906118a9565b60405180910390a15050565b5f604051905090565b5f80fd5b5f80fd5b5f80fd5b5f80fd5b5f601f19601f8301169050919050565b7f4e487b71000000000000000000000000000000000000000000000000000000005f52604160045260245ffd5b610c4482610bfe565b810181811067ffffffffffffffff82111715610c6357610c62610c0e565b5b80604052505050565b5f610c75610be5565b9050610c818282610c3b565b919050565b5f67ffffffffffffffff821115610ca057610c9f610c0e565b5b610ca982610bfe565b9050602081019050919050565b828183375f83830152505050565b5f610cd6610cd184610c86565b610c6c565b905082815260208101848484011115610cf257610cf1610bfa565b5b610cfd848285610cb6565b509392505050565b5f82601f830112610d1957610d18610bf6565b5b8135610d29848260208601610cc4565b91505092915050565b5f819050919050565b610d4481610d32565b8114610d4e575f80fd5b50565b5f81359050610d5f81610d3b565b92915050565b5f805f60608486031215610d7c57610d7b610bee565b5b5f84013567ffffffffffffffff811115610d9957610d98610bf2565b5b610da586828701610d05565b935050602084013567ffffffffffffffff811115610dc657610dc5610bf2565b5b610dd286828701610d05565b9250506040610de386828701610d51565b9150509250925092565b5f60ff82169050919050565b610e0281610ded565b8114610e0c575f80fd5b50565b5f81359050610e1d81610df9565b92915050565b5f8060408385031215610e3957610e38610bee565b5b5f610e4685828601610d51565b9250506020610e5785828601610e0f565b9150509250929050565b5f60208284031215610e7657610e75610bee565b5b5f610e8384828501610d51565b91505092915050565b5f81519050919050565b5f82825260208201905092915050565b5f5b83811015610ec3578082015181840152602081019050610ea8565b5f8484015250505050565b5f610ed882610e8c565b610ee28185610e96565b9350610ef2818560208601610ea6565b610efb81610bfe565b840191505092915050565b610f0f81610d32565b82525050565b5f73ffffffffffffffffffffffffffffffffffffffff82169050919050565b5f610f3e82610f15565b9050919050565b610f4e81610f34565b82525050565b610f5d81610ded565b82525050565b5f60a0820190508181035f830152610f7b8188610ece565b90508181036020830152610f8f8187610ece565b9050610f9e6040830186610f06565b610fab6060830185610f45565b610fb86080830184610f54565b9695505050505050565b5f610fcc82610f15565b9050919050565b610fdc81610fc2565b82525050565b5f60e082019050610ff55f83018a610f06565b81810360208301526110078189610ece565b9050818103604083015261101b8188610ece565b905061102a6060830187610f06565b6110376080830186610fd3565b61104460a0830185610f54565b61105160c0830184610f06565b98975050505050505050565b61106681610f34565b8114611070575f80fd5b50565b5f813590506110818161105d565b92915050565b5f806040838503121561109d5761109c610bee565b5b5f6110aa85828601610d51565b92505060206110bb85828601611073565b9150509250929050565b5f8115159050919050565b6110d9816110c5565b82525050565b5f6020820190506110f25f8301846110d0565b92915050565b5f60208201905061110b5f830184610f06565b92915050565b7f5072696365206d7573742062652067726561746572207468616e207a65726f005f82015250565b5f611145601f83610e96565b915061115082611111565b602082019050919050565b5f6020820190508181035f83015261117281611139565b9050919050565b7f4e487b71000000000000000000000000000000000000000000000000000000005f52601160045260245ffd5b5f6111b082610d32565b91507fffffffffffffffffffffffffffffffffffffffffffffffffffffffffffffffff82036111e2576111e1611179565b5b600182019050919050565b7f4e487b71000000000000000000000000000000000000000000000000000000005f52602260045260245ffd5b5f600282049050600182168061123157607f821691505b602082108103611244576112436111ed565b5b50919050565b5f819050815f5260205f209050919050565b5f6020601f8301049050919050565b5f82821b905092915050565b5f600883026112a67fffffffffffffffffffffffffffffffffffffffffffffffffffffffffffffffff8261126b565b6112b0868361126b565b95508019841693508086168417925050509392505050565b5f819050919050565b5f6112eb6112e66112e184610d32565b6112c8565b610d32565b9050919050565b5f819050919050565b611304836112d1565b611318611310826112f2565b848454611277565b825550505050565b5f90565b61132c611320565b6113378184846112fb565b505050565b5b8181101561135a5761134f5f82611324565b60018101905061133d565b5050565b601f82111561139f576113708161124a565b6113798461125c565b81016020851015611388578190505b61139c6113948561125c565b83018261133c565b50505b505050565b5f82821c905092915050565b5f6113bf5f19846008026113a4565b1980831691505092915050565b5f6113d783836113b0565b9150826002028217905092915050565b6113f082610e8c565b67ffffffffffffffff81111561140957611408610c0e565b5b611413825461121a565b61141e82828561135e565b5f60209050601f83116001811461144f575f841561143d578287015190505b61144785826113cc565b8655506114ae565b601f19841661145d8661124a565b5f5b828110156114845784890151825560018201915060208501945060208101905061145f565b868310156114a1578489015161149d601f8916826113b0565b8355505b6001600288020188555050505b505050505050565b5f6080820190506114c95f830187610f06565b81810360208301526114db8186610ece565b90506114ea6040830185610f06565b6114f76060830184610f45565b95945050505050565b7f526174696e67206d757374206265206265747765656e203120616e64203500005f82015250565b5f611534601e83610e96565b915061153f82611500565b602082019050919050565b5f6020820190508181035f83015261156181611528565b9050919050565b7f596f75206d75737420707572636861736520746865206d6f64656c20746f20725f8201527f6174652069740000000000000000000000000000000000000000000000000000602082015250565b5f6115c2602683610e96565b91506115cd82611568565b604082019050919050565b5f6020820190508181035f8301526115ef816115b6565b9050919050565b7f4d6f64656c20646f6573206e6f742065786973740000000000000000000000005f82015250565b5f61162a601483610e96565b9150611635826115f6565b602082019050919050565b5f6020820190508181035f8301526116578161161e565b9050919050565b5f61166882610ded565b915060ff820361167b5761167a611179565b5b600182019050919050565b5f61169082610d32565b915061169b83610d32565b92508282019050808211156116b3576116b2611179565b5b92915050565b5f6060820190506116cc5f830186610f06565b6116d96020830185610f54565b6116e66040830184610f45565b949350505050565b7f4e6f2066756e647320746f2077697468647261770000000000000000000000005f82015250565b5f611722601483610e96565b915061172d826116ee565b602082019050919050565b5f6020820190508181035f83015261174f81611716565b9050919050565b7f4e487b71000000000000000000000000000000000000000000000000000000005f52601260045260245ffd5b5f61178d82610d32565b915061179883610d32565b9250826117a8576117a7611756565b5b828204905092915050565b7f496e636f7272656374207061796d656e7420616d6f756e7400000000000000005f82015250565b5f6117e7601883610e96565b91506117f2826117b3565b602082019050919050565b5f6020820190508181035f830152611814816117db565b9050919050565b7f43726561746f722063616e6e6f74207075726368617365207468656972206f775f8201527f6e206d6f64656c00000000000000000000000000000000000000000000000000602082015250565b5f611875602783610e96565b91506118808261181b565b604082019050919050565b5f6020820190508181035f8301526118a281611869565b9050919050565b5f6040820190506118bc5f830185610f06565b6118c96020830184610f45565b939250505056fea2646970667358221220981b126b5365286587cb40dccddd43b17a222e1fb318f32a6f2348b45f08ded864736f6c63430008150033",
  "immutableReferences": {},
  "source": "// SPDX-License-Identifier: MIT\r\npragma solidity ^0.8.0;\r\n\r\ncontract AIModelMarketplace {\r\n    struct Model {\r\n        uint256 id;\r\n        string name;\r\n        string description;\r\n        uint256 price;\r\n        address payable creator;\r\n        uint8 ratingCount;\r\n        uint256 totalRating;\r\n    }\r\n\r\n    uint256 public modelCount;\r\n    mapping(uint256 => Model) public models;\r\n    mapping(uint256 => mapping(address => bool)) public purchasedModels; // Tracks if a user has purchased a model\r\n\r\n    // Events\r\n    event ModelListed(uint256 id, string name, uint256 price, address creator);\r\n    event ModelPurchased(uint256 id, address buyer);\r\n    event ModelRated(uint256 id, uint8 rating, address rater);\r\n\r\n    // List a new AI model\r\n    function listModel(string memory name, string memory description, uint256 price) public {\r\n        require(price > 0, \"Price must be greater than zero\");\r\n\r\n        modelCount++;\r\n        models[modelCount] = Model(\r\n            modelCount,\r\n            name,\r\n            description,\r\n            price,\r\n            payable(msg.sender),\r\n            0,\r\n            0\r\n        );\r\n\r\n        emit ModelListed(modelCount, name, price, msg.sender);\r\n    }\r\n\r\n    // Purchase a specific AI model\r\n    function purchaseModel(uint256 modelId) public payable {\r\n        Model storage model = models[modelId];\r\n        require(model.id > 0, \"Model does not exist\");\r\n        require(msg.value == model.price, \"Incorrect payment amount\");\r\n        require(msg.sender != model.creator, \"Creator cannot purchase their own model\");\r\n\r\n        model.creator.transfer(msg.value);\r\n        purchasedModels[modelId][msg.sender] = true;\r\n\r\n        emit ModelPurchased(modelId, msg.sender);\r\n    }\r\n\r\n    // Rate a purchased AI model\r\n    function rateModel(uint256 modelId, uint8 rating) public {\r\n        require(rating >= 1 && rating <= 5, \"Rating must be between 1 and 5\");\r\n        require(purchasedModels[modelId][msg.sender], \"You must purchase the model to rate it\");\r\n\r\n        Model storage model = models[modelId];\r\n        require(model.id > 0, \"Model does not exist\");\r\n\r\n        model.ratingCount++;\r\n        model.totalRating += rating;\r\n\r\n        emit ModelRated(modelId, rating, msg.sender);\r\n    }\r\n\r\n    // Withdraw funds from the contract (for admin or future upgrades)\r\n    function withdrawFunds() public {\r\n        address payable owner = payable(msg.sender);\r\n        uint256 balance = address(this).balance;\r\n        require(balance > 0, \"No funds to withdraw\");\r\n\r\n        owner.transfer(balance);\r\n    }\r\n\r\n    // Retrieve model details\r\n    function getModelDetails(uint256 modelId) public view returns (\r\n        string memory name,\r\n        string memory description,\r\n        uint256 price,\r\n        address creator,\r\n        uint8 averageRating\r\n    ) {\r\n        Model storage model = models[modelId];\r\n        require(model.id > 0, \"Model does not exist\");\r\n\r\n        uint8 avgRating = model.ratingCount > 0 ? uint8(model.totalRating / model.ratingCount) : 0;\r\n        return (model.name, model.description, model.price, model.creator, avgRating);\r\n    }\r\n}\r\n",
  "sourcePath": "D:\\AITUAssignments\\BlockchainTechnologies\\contracts\\AIModelMarketplace.sol",
  "compiler": {
    "name": "solc",
    "version": "0.8.21+commit.d9974bed.Emscripten.clang"
  },
  "schemaVersion": "3.4.16",
  "updatedAt": "2025-01-09T13:08:23.550Z",
  "devdoc": {
    "kind": "dev",
    "methods": {},
    "version": 1
  },
  "userdoc": {
    "kind": "user",
    "methods": {},
    "version": 1
  }
}